:020000040800F2
:1000000000500020190200086B0200086D02000871
:100010006F0200087102000873020008000000006F
:100020000000000000000000000000007502000851
:100030007702000800000000790200087B02000837
:1000400069020008690200086902000869020008E4
:1000500069020008690200086902000869020008D4
:1000600069020008690200086902000869020008C4
:1000700069020008690200086902000869020008B4
:1000800069020008690200086902000869020008A4
:100090006902000869020008690200086902000894
:1000A0006902000869020008690200086902000884
:1000B000D10100086902000869020008690200080D
:1000C0006902000869020008690200086902000864
:1000D0006902000869020008690200086902000854
:1000E00069020008690200086902000800000000B7
:1000F0000000000000000000000000000000000000
:0C01000000000000000000005FF808F1A3
:10010C0010B5054C237833B9044B13B10448AFF345
:10011C0000800123237010BD0000002000000000AF
:10012C00E003000808B5034B1BB103490348AFF3C8
:10013C00008008BD0000000004000020E00300085F
:10014C0008B500F0FBF81B498B6943F018038B6171
:10015C00CB6943F4800343F00103CB61164B5A681F
:10016C0042F440125A605A6822F440025A604FF02E
:10017C00804245F6BF50108540F2CF709085908933
:10018C0080B240F001009081108880B240F0810074
:10019C0010804FF08050094A10601A6942F40052E6
:1001AC001A611A6942F000521A610122044B1A605A
:1001BC000B68FEE7001002400010014000E100E077
:1001CC001C0000204FF08042138A9BB223F00103E5
:1001DC009BB213820B4B1B68012B08D00A4A136984
:1001EC0043F4005313610122064B1A60704702F569
:1001FC008832136943F0005313610022014B1A60DB
:10020C00704700BF1C00002000100140DFF834D004
:10021C00002103E00C4B5B58435004310B480C4B52
:10022C0042189A42F6D30B4A02E0002342F8043BF0
:10023C00094B9A42F9D300F081F800F0A7F8FFF7C8
:10024C007FFF7047005000200004000800000020D1
:10025C00000000200000002020000020FEE7704776
:10026C00FEE7FEE7FEE7FEE7704770477047704712
:10027C0082B00023019300932C4A136843F480331B
:10028C0013602A4B1B6803F400330093019B01336A
:10029C000193009B1BB9019BB3F5A06FF1D1234BCC
:1002AC001B6813F4003F06D001230093009B012B25
:1002BC0004D002B0704700230093F7E71C4B1A6878
:1002CC0042F010021A601A6822F003021A601A68CF
:1002DC0042F002021A60A3F580535A685A605A68B9
:1002EC005A605A6842F480625A605A6822F47C124E
:1002FC005A605A6842F4E8125A601A6842F08072E6
:10030C001A600A4B1B6813F0007FFAD0074B5A682F
:10031C0022F003025A605A6842F002025A60034B00
:10032C005B6803F00C03082BF9D1C2E70010024004
:10033C000020024008B5FFF79BFF08BD08B5104B25
:10034C001A6842F001021A6059680E4A0A405A6053
:10035C001A6822F0847222F480321A601A6822F42D
:10036C0080221A605A6822F4FE025A604FF41F026F
:10037C009A60FFF7DFFF4FF00062034B9A6008BDF5
:10038C00001002400000FFF800ED00E070B5002501
:10039C000C4E0D4CA41BA410A54209D100F01AF868
:1003AC0000250A4E0A4CA41BA410A54205D170BD11
:1003BC0056F8253098470135EEE756F82530984722
:1003CC000135F2E7F8030008F8030008F803000809
:1003DC00FC030008F8B500BFF8BC08BC9E4670478B
:0C03EC00F8B500BFF8BC08BC9E46704786
:0403F80031010008C7
:0403FC000D010008E7
:0400000508000219D4
:00000001FF
